:1000000008308A0000280000FF00030E8301A100D1
:100010000A08A0008A010408A2007708A300780853
:10002000A4007908A5007A08A60003170D08031399
:10003000A70003170F080313A80003170C080313E6
:10004000A90003170E080313AA00831383120B1EC3
:100050002B288B1856288C308400801E31288C1A4F
:1000600059288B1E35280B195C2822088400230888
:10007000F7002408F8002508F9002608FA002708E8
:1000800003178D000313280803178F000313290893
:1000900003178C0003132A0803178E00031320088C
:1000A0008A00210E8300FF0E7F0E09008A110A12BA
:1000B0005F288A110A1207298A110A12A528B50A8F
:1000C0000319B60A8B108A110A1235285D08E4005C
:1000D0006108E406E41F712803110310DD1B0314FB
:1000E000A4285D08E4006008E5005C08E502031947
:1000F0007F28E41FA4280308013A8300A42861088C
:10010000E5005D08E50203198B28E41FA428030815
:10011000013A8300A4286208E5005E08E50203199D
:100120009728E41FA4280308013A8300A428630841
:10013000E5005F08E5020319A328E41FA4280308CB
:10014000013A8300A42803100800DF01DE014830D3
:10015000DD008530DC003A08E3003908E2003808A9
:10016000E1003708E00066200318B828031DBF2807
:10017000300881008316091183120915E6283A0810
:10018000DF003908DE003808DD003708DC00E30155
:10019000E201E101E0016620031DD528300881005D
:1001A0008316091183120911E6282F1CDE28300856
:1001B00081008316091183120915E4283208810091
:1001C00083160911831209110130AF060B118A1130
:1001D0000A1235288E30F7005D08F8005C08F90037
:1001E000FA01F808031DFE287908F800F901083023
:1001F000F702F808031DFE28F70106290310F81B73
:100200000529F90DF80DF703FE28F81308008C1ED8
:1002100007291A08B40034086A3C031D1D298C1EE6
:100220000F291A08DD01DC00EA207A08BA007908F3
:10023000B9007808B8007708B7008C128A110A1242
:100240003528C121A0264F2A4F29A0214F27542904
:100250004F262005CD30781052284D1DB31A301886
:1002600000000C22753A7910C3346336651DA01264
:100270006C33200552284D1DA01266000C22431D30
:10028000A0126C33200552284D1DA012E618AE189E
:100290000000503084008313000803195D290130E9
:1002A000F800F701F70B5229F80B51294A30F700F3
:1002B000F70B58295B29800B4F2908005718622932
:1002C000081263290816831608128312D7186A29A0
:1002D00088126B298816831688128312571972297F
:1002E000081373290817831608138312D7197A295C
:1002F00088137B29881783168813000083128716BA
:10030000AE122E0883168700852983128712AE123B
:100310002E088316870083120800D801831608165A
:1003200000308312081A0130D80483168816003072
:100330008312881A0130F7000310F70D7708D804EC
:100340008316081700308312081B0130F700F70DE1
:10035000F70DFC30F7057708D804831688170030AE
:100360008312881B0130F700F70DF70DF70DF830F9
:10037000F7057708D8045808F8000800AE122E08D0
:10038000831687008312AE112E088316870083120E
:100390002E122E088316870083128711AE112E08A5
:1003A0008316870008168816081788178312071601
:1003B0002E122E0883168700000083128716AE12B5
:1003C0002E0883168700000083128D217808D7003D
:1003D0008712AE122E08831687000000831287163C
:1003E000AE122E0883168700000083128D21780834
:1003F000D6008712AE122E088316870008128812C4
:10040000081388138312570EF700F030F7057708AA
:100410005604F8007808D600D61F102A8316D22971
:10042000D408031D152A8711162A8715AE112E0828
:10043000831687000000831207122E122E088316DF
:100440008700000083128712AE122E0883168700E1
:100450008312550ED6000F30D6055608D7005E2100
:1004600055080F39D600D7005E2108002830C30098
:100470000C30C4000130C5000630C6008712AE1231
:100480002E088316870083128711AE112E0883165B
:100490008700831207122E122E0883168700081277
:1004A0008812081388138312AE122E088316870051
:1004B0008312AE112E088316870083122E122E0887
:1004C000831687000F308312D00049210130C2000B
:1004D0004208033C031C742A0330D7005E21053018
:1004E000D0004921C20A682A0230D7005E210530B7
:1004F000D0004921C2014208033C031C8B2A43302F
:100500004207840083130008C700D4014708D500C0
:10051000BE21C20A7B2A8A150A122828510B912A69
:10052000942A4030D200952AD20101305002D207DD
:1005300052088038D300D4015308D500BE210800EA
:100540004F08073A0319AE2A0B3A0319B32A063AA1
:100550000319BB2A023A0319C12AC62A0130D00066
:10056000D1008E22CB2AD4010130D500BE21023029
:10057000D0004921CB2A0130D0000230D1008E2298
:10058000CB2AD4011030D500BE21CB2A0130D400B3
:100590004F08D500BE2108000B08C2008B1383163C
:1005A00003178C170C140000000083120313C21BE6
:1005B0008B1703170C087F390319202B0313C20074
:1005C00003170D080313C30003170F080313C40018
:1005D0004208CF00A022430803178D0003134408EC
:1005E00003178F0003130B08C5008B138316031723
:1005F0008C170C140000000083120313C51B8B170B
:1006000003170C0D0E0D7F390319202B0313C200A5
:1006100003170D080313C30003170F080313C400C7
:100620004208CF00A022430803178D00031344089B
:1006300003178F008D0A03198F0A0313CC2A03179F
:1006400003138A150A1247280B08C3008B1383165D
:1006500003178C170C140000000083120313C31B34
:100660008B1703185B2B03170C087F390313C30088
:1006700003170D080313C40003170F080313C50065
:100680004308CF00A022440803178D000313450838
:1006900003178F0003130B08C6008B138316031771
:1006A0008C170C140000000083120313C61B8B1759
:1006B000C20B5B2B7A2B03170C0D0E0D7F39031326
:1006C000C30003170D080313C40003170F08031317
:1006D000C5004308CF00A022440803178D00031370
:1006E000450803178F008D0A03198F0A031003139F
:1006F000C20B242B08004F080319EB2BD70053081B
:100700000319EB2BD70703188C2B7F30D702031C60
:10071000EB2B0319EB2B902B8130D7070318EB2B16
:100720005708F700F801F901FA015008DB00DB1760
:100730005108DA005208D9001830D700D801591CE6
:10074000B92B5608FA07031CAB2BF90A031DAB2B78
:10075000F80A0319D8175508F907031CB22BF80A31
:100760000319D8175408D100D1175108F8070318F6
:10077000D817D80DF80CF90CFA0CDB0CDA0CD90CE4
:100780000310D70B9E2B0130F7070318EB2BF81B38
:10079000D02BDB0DFA0DF90DF80DF7030319EB2B38
:1007A000DB1FE12BFA0A031DE12BF90A031DE12BE4
:1007B000F80A031DE12BF80CF90CFA0CF70A0319DF
:1007C000EB2B5008D8005408D806D81FE92BF8178F
:1007D000EF2BF813EF2BF701F801F901FA010800EC
:1007E0004F08B63CCF00FA015008D300D0170310D1
:1007F000D00CD10CD20CFA0CF90CF80CF70CCF0B76
:10080000F72BD31F0E2CF709F809F909FA09F70A93
:100810000319F80A0319F90A0319FA0A08008318D8
:10082000142C573084008313F701F801F901FA0101
:10083000D701D801D901DA015608550454045304EC
:100840000319522C2030DB000310CF0DD00DD10D39
:10085000D20DD70DD80DD90DDA0D56085A02031D49
:100860003B2C55085902031D3B2C54085802031D0C
:100870003B2C53085702031C4C2C5308D702540836
:10088000031C540FD8025508031C550FD9025608F3
:10089000031C560FDA020314F70DF80DF90DFA0DCB
:1008A000DB0B242C57088000840A58088000840A37
:1008B00059088000840A5A08800008000408C7000C
:1008C0004608C90003197D2C4508D2004408D10010
:1008D0004308D0004208CF00D601D5012030D40013
:1008E0008230D3007B237A08C5007908C4007808D9
:1008F000C3007708C200C90B642C4508D200440825
:10090000D1004308D0004208CF00F0237A08C50088
:100910007908C4007808C3007708C200C51F9D2C61
:10092000C703C716C209C309C409C509C20A031906
:10093000C30A0319C40A0319C50A3B30CE009A3012
:10094000CD00CA30CC00CB010A30C90046080319DB
:10095000C70A83144230840083134508D200440838
:10096000D1004308D0004208CF004E08D6004D0801
:10097000D5004C08D4004B08D3000F247808F708A2
:10098000031DD52C460A49020319D52C4708031923
:10099000D72C0F3949020319CF2C0318072DC71B79
:1009A000072D471BD72C2030032D2030C705C71E2D
:1009B000E52CC7124608031DC7037708C7002D3072
:1009C000CF00A0224708F700C70146084902031DCF
:1009D000F32C7708C7002E30CF00A0224708F7007D
:1009E0002030C70500303030C71E032DC71246081F
:1009F000031DC7037708C7002D30CF00A02247088A
:100A0000F700C7013030F7077708CF00A022831026
:100A10004E08D2004D08D1004C08D0004B08CF0042
:100A2000D601D501D4010A30D3000F247A08CE00B4
:100A30007908CD007808CC007708CB00C90BA92C29
:100A4000080046080319E62DD2004A080319E62DCE
:100A5000D202031C302D7F30D2070318E62D362D2D
:100A60008130D202031CE62D0319E62D5208F7004F
:100A7000F801F901FA01D1014708D000D017480860
:100A8000CF004908CE001930D2004D08CE0203181D
:100A9000592D0130CF020318592DD0020318592DBA
:100AA000D1020318592DD10AD00ACF0A4D08CE071A
:100AB0008B2D4C08CF020318742D0130D00203187F
:100AC000742DD1020318742DD10AD00A4C08CF0717
:100AD0004D08CE07031C8B2DCF0A031D8B2DD00A8A
:100AE000031D8B2DD10A8B2D4B088038D0020318A3
:100AF0008A2D0130D10203188A2DD10A4B08803883
:100B0000D0074C08CF07031C682DD00A031D682DA1
:100B1000D10A682D7A14D20B8E2D992D0310CE0D8B
:100B2000CF0DD00DD10D0310FA0DF90DF80DD30D29
:100B3000452D531CA12D0310F80CF90CFA0CD30C05
:100B4000A42DF7030319E62DD31BCD2D0310CE0DD5
:100B5000CF0DD00DD10D4D08CE020318B92D0130A7
:100B6000CF020318B92DD0020318B92DD102031CEE
:100B7000DC2D4C08CF020318C42D0130D00203181D
:100B8000C42DD102031CDC2D4B088038D002031881
:100B9000CD2D0130D102031CDC2DFA0A031DDC2D02
:100BA000F90A031DDC2DF80A031DDC2DF70A0319D1
:100BB000E62DF80CF90CFA0C4708D2004B08D206C7
:100BC000D21FE42DF817EA2DF813EA2DF701F801EA
:100BD000F901FA0108000408C7004608C900031912
:100BE0000A2E4508D2004408D1004308D00042082C
:100BF000CF00D601D5012030D4008230D3007B2332
:100C00007A08C5007908C4007808C3007708C200D4
:100C1000C90BF12D4508D2004408D1004308D0008B
:100C20004208CF00F0237A08C5007908C40078088C
:100C3000C3007708C200C51F2A2EC703C716C20902
:100C4000C309C409C509C20A0319C30A0319C40A9E
:100C50000319C50A3B30CE009A30CD00CA30CC0013
:100C6000CB010A30C90046080319C70A8314423071
:100C7000840083134508D2004408D1004308D00003
:100C80004208CF004E08D6004D08D5004C08D400CD
:100C90004B08D3000F247808F708031D622E460A7C
:100CA00049020319622E47080319642E0F394902BD
:100CB00003195C2E0318982EC71B982E471B642E11
:100CC0002030932E2030C705C71E732EC71246084A
:100CD000031DC7037708C7002D300C1E6D2E990029
:100CE0004708F700C70146084902031D822E77080E
:100CF000C7002E300C1E7A2E99004708F7002030CE
:100D0000C70500303030C71E932EC7124608031D9A
:100D1000C7037708C7002D300C1E8C2E990047089A
:100D2000F700C7013030F70777080C1E952E9900A1
:100D300083104E08D2004D08D1004C08D0004B085B
:100D4000CF00D601D501D4010A30D3000F247A0890
:100D5000CE007908CD007808CC007708CB00C90B0D
:100D6000362E8A150A12F9288E30F7004208F7024B
:100D70004308F9004408F800F917F7080319CB2EC7
:100D80000310F908031DC72EF8080319CB2EF90C20
:100D9000F80CF70BC02EC31FD22EF809F909F80A78
:0A0DA0000319F90A8A150A127B29CB
:1010000003081F398300193083169900A630980011
:10101000903083129800FF30AE002F10B601B5015A
:10102000BE01BD01BC01BB010C30BF00C101C0014C
:1010300083161F149F141F159F1107309C008313E4
:101040008312AC01AD01831606148A118312362A6D
:101050008A158316091083120910831689108312CA
:1010600089100B1683168C160108C03907388100C9
:10107000011383128B16C0308B04FF3081002130A6
:1010800003178D0001308F008A110313CC2A8A15B3
:101090000A30C200FA30D0008A1149218A15C20BE9
:1010A0004A280130D000D1008A118E228A153130B1
:1010B00003178D0001308F0003100D300313C200A1
:1010C0008A1124238A15893084003A08C50039081A
:1010D000C4003808C3003708C2000230C6008A11B5
:1010E0005E248A15393003178D0001308F000310FC
:1010F00007300313C2008A1124238A158930840023
:101100003E08C5003D08C4003C08C3003B08C200BF
:101110000230C6008A115E248A150430C200FA30FB
:10112000D0008A1149218A15C20B8F28AB018B1B75
:10113000AB178B133608DD003508DC008A11EA2076
:101140008A15AB1B8B177A08C5007908C40078088C
:10115000C3007708C2004508D2004408D100430804
:10116000D0004208CF00D601D5017030D4008430C1
:10117000D3008A117B238A157A08C5007908C40038
:101180007808C3007708C200AB018B1BAB178B1329
:10119000DD013F08DC008A11EA208A15AB1B8B17A2
:1011A0004508C9004408C8004308C7004208C600F3
:1011B0007A08CD007908CC007808CB007708CA00FF
:1011C0008A1121258A157A08BE007908BD007808A1
:1011D000BC007708BB00893084003E08C5003D088C
:1011E000C4003C08C3003B08C2000230C6008A119C
:1011F000EB2D8A150130D000D1008A118E228A157C
:101200003E3003178D0001308F00031005300313AB
:10121000C2008A1124238A15893084003A08C50047
:101220003908C4003808C3003708C2000230C600BD
:101230008A115E248A15423003178D0001308F0019
:10124000031007300313C2008A1124238A15893042
:1012500084003E08C5003D08C4003C08C3003B08AC
:10126000C2000230C6008A115E248A153130CF00D8
:101270008A11A0228A152E30CF008A11A0228A1549
:101280003130CF008A11A0228A15B601B5013A0883
:10129000D2003908D1003808D0003708CF00D60175
:1012A000D5017F30D4008630D3008A117B238A1584
:1012B0007A08C5007908C4007808C3007708C2001E
:1012C0004508C9004408C8004308C7004208C600D2
:1012D000CD01CC014830CB008530CA008A112125D0
:1012E0008A157A08C5007908C4007808C300770811
:1012F000C2008A11B42E8A157908B3007808B200AA
:101300003208FF3CB000B1013308031C330FB102B7
:0413100051286300FD
:02400E00323F3F
:00000001FF
;PIC16F877A
;CRC=204A  CREATED="05-Mar-24 20:35"
