:1000000008308A00002800000A108A100A118207AE
:1000100028340C34013406340C224310D6274C2AE1
:10002000CD22D42252100A2B65392E192E18000029
:100030008C20C421A01EA030E237F6322039E530F2
:10004000E434EE33A0316138E131693A79000C2BA8
:100050006F36F430E7323A102519AE1866105600A4
:100060008A20C421A01EA0123436750040308400BE
:1000700083130008031949280630F800F701F70B2D
:100080003F28F80B3E287B30F700F70B4528800B04
:100090003C280800470EF039F7000F3007057704B9
:1000A0008700000007140330F700F70B55280710EE
:1000B00008000708F700070E0F39F800080087103E
:1000C0000F3083160705F0388700831207150000EC
:1000D0000714000059207808C70007100000071413
:1000E00071287228000059207808C60007100F30C8
:1000F0008316070587008312470EF700F030F705D7
:1001000077084604F8007808C600C61B6028441C1F
:100110008710441887140000071100000710450ECF
:10012000C6000F30C6054608C7004A2045080F39EB
:10013000C600C7004A2008000F3083160705870055
:1001400007108710071183128710071107100F304F
:10015000C00036200130AE002E08033C031CB82836
:100160000330C7004A200530C0003620AE0AAC2854
:100170000230C7004A20AE012E08033C031CC928E8
:100180002E080420AF00C4012F08C5005F20AE0A6E
:10019000BC288A150A1225283F080C3A0319D728CB
:1001A000063A0319DF28023A0319F528FA28C40190
:1001B0000130C5005F200230C0003620FF2801302A
:1001C000C0000230C100410BE628E9284030C200DF
:1001D000EA28C20101304002C20742088038C30049
:1001E000C4014308C5005F20FF28C4011030C500CA
:1001F0005F20FF280130C4003F08C5005F200800D1
:100200000B08AE008B13831603178C170C14000019
:10021000000083120313AE1B8B1703170C087F39E2
:10022000031954290313AE0003170D080313AF007D
:1002300003170F080313B0002E08BF00CC202F08AF
:1002400003178D000313300803178F0003130B08E7
:10025000B1008B13831603178C170C1400000000D9
:1002600083120313B11B8B1703170C0D0E0D7F396F
:10027000031954290313AE0003170D080313AF002D
:1002800003170F080313B0002E08BF00CC202F085F
:1002900003178D000313300803178F008D0A03190D
:1002A0008F0A031300290317031308008E30F70089
:1002B0002F08F8002E08F900FA01F808031D6A2932
:1002C0007908F800F9010830F702F808031D6A29D7
:1002D000F70172290310F81B7129F90DF80DF703C6
:1002E0006A29F8138A150A1263283F080319E529B9
:1002F000C70043080319E529C707031886297F307B
:10030000C702031CE5290319E5298A298130C7079B
:100310000318E5294708F700F801F901FA01400838
:10032000CB00CB174108CA004208C9001830C700EB
:10033000C801491CB3294608FA07031CA529F90A74
:10034000031DA529F80A0319C8174508F907031C56
:10035000AC29F80A0319C8174408C100C11741089D
:10036000F8070318C817C80DF80CF90CFA0CCB0CD9
:10037000CA0CC90C0310C70B98290130F7070318E2
:10038000E529F81BCA29CB0DFA0DF90DF80DF70375
:100390000319E529CB1FDB29FA0A031DDB29F90A1A
:1003A000031DDB29F80A031DDB29F80CF90CFA0CF4
:1003B000F70A0319E5294008C8004408C806C81F01
:1003C000E329F817E929F813E929F701F801F901F8
:1003D000FA01080040080319AF2ACC0044080319A9
:1003E000AF2ACC02031CF9297F30CC070318AF2AAF
:1003F000FF298130CC02031CAF2A0319AF2A4C0815
:10040000F700F801F901FA01CB014108CA00CA1747
:100410004208C9004308C8001930CC004708C80288
:100420000318222A0130C9020318222ACA0203181B
:10043000222ACB020318222ACB0ACA0AC90A470871
:10044000C807542A4608C90203183D2A0130CA02C7
:1004500003183D2ACB0203183D2ACB0ACA0A4608D4
:10046000C9074708C807031C542AC90A031D542A90
:10047000CA0A031D542ACB0A542A45088038CA02E6
:100480000318532A0130CB020318532ACB0A45081C
:100490008038CA074608C907031C312ACA0A031D47
:1004A000312ACB0A312A7A14CC0B572A622A03103C
:1004B000C80DC90DCA0DCB0D0310FA0DF90DF80DBD
:1004C000CD0D0E2A4D1C6A2A0310F80CF90CFA0CFB
:1004D000CD0C6D2AF7030319AF2ACD1B962A031002
:1004E000C80DC90DCA0DCB0D4708C8020318822AD2
:1004F0000130C9020318822ACA020318822ACB02D9
:10050000031CA52A4608C90203188D2A0130CA0215
:1005100003188D2ACB02031CA52A45088038CA027D
:100520000318962A0130CB02031CA52AFA0A031DE0
:10053000A52AF90A031DA52AF80A031DA52AF70A08
:100540000319AF2AF80CF90CFA0C4108CC00450845
:10055000CC06CC1FAD2AF817B32AF813B32AF7013B
:10056000F801F901FA01080080308318C506CA01B4
:10057000CB014108C9004508C90640080319A42B4E
:10058000C800F70044080319AD2BC8020319492B12
:10059000031C072B4508CE00CE174608CD004708A0
:1005A000CC00CB010310CE0CCD0CCC0CCB0CC80B6B
:1005B000D12AC91FDE2A4A14C12B4A1048104A16F4
:1005C000433084008313D62B4A12C91BF12A481CDE
:1005D000FC2ACE0CCD0CCC0CCB0CF70A0319BC2B8F
:1005E000FC2ACE1BFF2A0310CB0DCC0DCD0DCE0D5A
:1005F000F7030319BC2BF12A4A17692B4A13410848
:10060000C900C91F052BCE17B52BCE13B52B440837
:10061000C800F7004008C8024108CE00CE174208C3
:10062000CD004308CC00CB010310CE0CCD0CCC0C7C
:10063000CB0CC80B132BC91F202BCA14C12BCA10FB
:100640004810CA16473084008313D62BCA12C91B20
:10065000332B481C3E2BCE0CCD0CCC0CCB0CF70A0C
:100660000319BC2B3E2BCE1B412B0310CB0DCC0D05
:10067000CD0DCE0DF7030319BC2B332BCA17692BF5
:10068000CA134508C900C91F472BCE17B52BCE1377
:10069000B52B4508CE00CE174608CD004708CC0044
:1006A000C91F562BCE134A15C12B4A11CB01481036
:1006B000433084008313D62BC91B7F2B4108C9000C
:1006C000481C692BCE0CCD0CCC0CCB0CF70A0319B3
:1006D000BC2BCB1F7A2BCC0A031D7A2BCD0A031D12
:1006E0007A2BCE0A031D7A2BCE0CCD0CCC0CF70A3C
:1006F0000319BC2B4A1BFE2ACA1B402B9E2B8030A1
:10070000CE06CE1F872BC12B4508C900942B41086C
:10071000C900CE08031D942BCD08031D942BCC08D3
:10072000031D942BF701B52BCE1B9E2B0310CB0D75
:10073000CC0DCD0DCE0DF70B942BBC2BC91FA22BCE
:10074000CE17B52BCE13B52B4408F7004508CE00C5
:100750004608CD004708CC00B52B4008F7004108FB
:10076000CE004208CD004308CC004E08F8004D08EA
:10077000F9004C08FA00F42BF701F801F901FA012D
:10078000F42BCB01CC09CD09CE09CB09CB0A031D33
:10079000CF2BCC0A031DCF2BCD0A0319CE0A4A1842
:1007A000DD2ACA181F2B4A19552B842B0008CC07A9
:1007B000031CE02BCD0A031DE02BCE0A03194814BD
:1007C00084030008CD07031CE82BCE0A0319481444
:1007D00084030008801F803ACE07031848144A1A81
:1007E000E42ACA1A262B5C2B08004108C8004508D9
:1007F000C806C81F002C03110310C11B0314332C9F
:100800004108C8004408C9004008C90203190E2C59
:10081000C81F332C0308013A8300332C4508C90054
:100820004108C90203191A2CC81F332C0308013AC6
:100830008300332C4608C9004208C9020319262C3C
:10084000C81F332C0308013A8300332C4708C90022
:100850004308C9020319322CC81F332C0308013A7C
:100860008300332C031008003508C3003408C2008D
:100870003308C1003208C000C701C601C501C40168
:10088000F5230318452C031D4A2CF701F801F90143
:10089000FA01C22C3508B9003408B8003308B70093
:1008A0003208B600BF013630BE003E088400831314
:1008B0003F1883170008C301C2007F30C207031826
:1008C000C30A0310430CFA00420CF900C2003E08B0
:1008D000840083133F188317420880003908BD0045
:1008E0003808BC003708BB003608BA003508C3001A
:1008F0003408C2003308C1003208C0003908C700FC
:100900003808C6003708C5003608C400EA2183103D
:100910003908C3003808C2003708C1003608C000D3
:100920007A08C7007908C6007808C5007708C400AF
:10093000B4227A08B9007908B8007808B7007708B7
:10094000B6003E08840083133F18831780033D08D8
:10095000C3003C08C2003B08C1003A08C000390887
:10096000C7003808C6003708C5003608C400F5239C
:10097000031D6E2C3A08F7003B08F8003C08F9000C
:100980003D08FA008A150A1233290B08B3008B13AD
:10099000831603178C170C14000000008312031336
:1009A000B31B8B170318FC2C03170C087F39031398
:1009B000B30003170D080313B40003170F08031344
:1009C000B5003308BF00CC20340803178D00031393
:1009D000350803178F0003130B08B6008B1383161B
:1009E00003178C170C140000000083120313B61BAE
:1009F0008B17B20BFC2C1B2D03170C0D0E0D7F3922
:100A00000313B30003170D080313B40003170F08F3
:100A10000313B5003308BF00CC20340803178D0042
:100A20000313350803178F008D0A03198F0A03106B
:100A30000313B20BC52C08008318212D4730840006
:100A40008313F701F801F901FA01C701C801C901CF
:100A5000CA01460845044404430403195F2D2030AD
:100A6000CB000310BF0DC00DC10DC20DC70DC80DC9
:100A7000C90DCA0D46084A02031D482D4508490202
:100A8000031D482D44084802031D482D4308470212
:100A9000031C592D4308C7024408031C440FC80215
:100AA0004508031C450FC9024608031C460FCA022D
:100AB0000314F70DF80DF90DFA0DCB0B312D470886
:100AC0008000840A48088000840A49088000840A5B
:100AD0004A08800008000408B7003608B900031966
:100AE0008A2D3508C2003408C1003308C00032081E
:100AF000BF00C601C5012030C4008230C30075218B
:100B00007A08B5007908B4007808B3007708B20015
:100B1000B90B712D3508C2003408C1003308C0007C
:100B20003208BF003F08B63CBF00FA014008C300CE
:100B3000C0170310C00CC10CC20CFA0CF90CF80C55
:100B4000F70CBF0B992DC31FB02DF709F809F90950
:100B5000FA09F70A0319F80A0319F90A0319FA0A34
:100B60007A08B5007908B4007808B3007708B200B5
:100B7000B51FC72DB703B716B209B309B409B50934
:100B8000B20A0319B30A0319B40A0319B50A3B30B0
:100B9000BE009A30BD00CA30BC00BB010A30B900AB
:100BA00036080319B70A83143230840083133508DA
:100BB000C2003408C1003308C0003208BF003E083C
:100BC000C6003D08C5003C08C4003B08C3001C2506
:100BD0007808F708031DFF2D360A39020319FF2D87
:100BE00037080319012E0F3939020319F92D03189B
:100BF000312EB71B312E371B012E20302D2E2030E9
:100C0000B705B71E0F2EB7123608031DB7037708B6
:100C1000B7002D30BF00CC203708F700B7013608E9
:100C20003902031D1D2E7708B7002E30BF00CC20DF
:100C30003708F7002030B70500303030B71E2D2EB2
:100C4000B7123608031DB7037708B7002D30BF0071
:100C5000CC203708F700B7013030F7077708BF001E
:100C6000CC2083103E08C2003D08C1003C08C000F3
:100C70003B08BF00C601C501C4010A30C3001C25E2
:100C80007A08BE007908BD007808BC007708BB0070
:100C9000B90BD32D8A150A125629B6010408B500DE
:100CA0003610831B36142F0EF038B100B107E23E28
:100CB000B200323EB4002F080F39B207B207B407B2
:100CC000E93EB300B307B3072E0E0F39B307B407DD
:100CD000B30DB40DB409B40D2E080F39B407B10D1E
:100CE0000730B0000A30B407B303031C732EB307F8
:100CF000B203031C772EB207B103031C7B2EB1078E
:100D0000B003031C7F2E3030840083130730350579
:100D10003513840734300402031935170008F7002F
:100D2000031D9A2E351B9A2E351AAC2EB5199A2E04
:100D300020309D2EB51535123030F707AF0104086D
:100D4000AE002F10831B2F147708BF00CC202E0875
:100D5000840083132F188317840A351F8A2E8A155F
:040D60000A127529D5
:1010000003081F398300A101A00183161F149F1438
:101010001F159F1107309C0083138312A301A201A7
:10102000AB01AA01A901A80183161F1383121F1780
:101030009F1783169F1783121F1483161F109F106C
:101040001F159F118A1183129C288A150C300317D3
:101050008D0000308F008A11031300218A1504309F
:10106000AE00FA30C0008A1136208A15AE0B312846
:10107000AB01AA01A901A801A301A201AD01AC0124
:101080002D08013C031CF128031D4A282C082B3C89
:10109000031CF1280830F8001F08C73978049F00A6
:1010A0001F151F1951281E08F90083161E08F80085
:1010B00079088312A3007808A2002308AF00220851
:1010C000AE008A1156298A15B830C2001E30C10000
:1010D0001D30C0008130BF007A08C6007908C50005
:1010E0007808C4007708C3008A1175218A157A0828
:1010F000B1007908B0007808AF007708AE00310879
:10110000C3003008C2002F08C1002E08C000C7016C
:10111000C030C6007F30C5008830C4008A11EA2183
:101120008A157A08B1007908B0007808AF0077080E
:10113000AE003108C2003008C1002F08C0002E08E0
:10114000BF00C601C5012030C4008130C3008A1130
:1011500075218A157A08A7007908A6007808A500E5
:101160007708A4002130F700F70BB4282708C20045
:101170002608C1002508C0002408BF002708C600B3
:101180002608C5002508C4002408C3008A1175215B
:101190008A157A08B1007908B0007808AF0077089E
:1011A000AE0083103108C3003008C2002F08C10010
:1011B0002E08C0002B08C7002A08C6002908C50051
:1011C0002808C4008A11B4228A157A08AB0079086D
:1011D000AA007808A9007708A800AC0A0319AD0A8C
:1011E00040282308023C03180629FF3A031DFC2867
:1011F0002208FD3C03180629183003178D00003023
:101200008F008A11031300218A151F102308033C45
:10121000031C7629031D10292208FD3C031C762996
:101220002B08C3002A08C2002908C1002808C000F2
:10123000C701C6011630C5008730C4008A11EA21F3
:101240008A157A08B1007908B0007808AF007708ED
:10125000AE003108B5003008B4002F08B3002E08E6
:10126000B2008A11342C8A157A08B1007908B000CE
:101270007808AF007708AE00273003178D000030E4
:101280008F0003100A300313B2008A11C5248A1597
:10129000013084003108B5003008B4002F08B300D5
:1012A0002E08B2000130B6008A116B2D8A1520304D
:1012B000BF008A11CC208A155630BF008A11CC207D
:1012C0008A15303003178D0000308F00031007306F
:1012D0000313B2008A11C5248A1501308400230843
:1012E000AF002208AE008A114D2E8A1583161F13F7
:1012F00083121F179F1783169F1783121F143828F6
:02130000630088
:02400E00323F3F
:00000001FF
;PIC16F877A
;CRC=FB4A  CREATED="28-Feb-24 17:31"
